{
  "contractName": "copyright",
  "abi": [
    {
      "constant": false,
      "inputs": [
        {
          "name": "_id",
          "type": "uint256"
        },
        {
          "name": "_name",
          "type": "string"
        },
        {
          "name": "_addr",
          "type": "address"
        }
      ],
      "name": "registerUser",
      "outputs": [],
      "payable": false,
      "stateMutability": "nonpayable",
      "type": "function",
      "signature": "0x58129d39"
    },
    {
      "constant": true,
      "inputs": [
        {
          "name": "__id",
          "type": "uint256"
        }
      ],
      "name": "getUser",
      "outputs": [
        {
          "name": "_id",
          "type": "uint256"
        },
        {
          "name": "_addr",
          "type": "address"
        },
        {
          "name": "_name",
          "type": "string"
        },
        {
          "name": "_purchasedCount",
          "type": "uint256"
        },
        {
          "name": "_publishedCount",
          "type": "uint256"
        },
        {
          "name": "_purchasedSongs",
          "type": "uint256[]"
        },
        {
          "name": "_publishedSongs",
          "type": "uint256[]"
        }
      ],
      "payable": false,
      "stateMutability": "view",
      "type": "function",
      "signature": "0xb0467deb"
    },
    {
      "constant": true,
      "inputs": [
        {
          "name": "_uid",
          "type": "uint256"
        }
      ],
      "name": "checkUserExists",
      "outputs": [
        {
          "name": "",
          "type": "bool"
        }
      ],
      "payable": false,
      "stateMutability": "view",
      "type": "function",
      "signature": "0x6a1d1ecd"
    },
    {
      "constant": true,
      "inputs": [
        {
          "name": "_sid",
          "type": "uint256"
        }
      ],
      "name": "checkSongExists",
      "outputs": [
        {
          "name": "",
          "type": "bool"
        }
      ],
      "payable": false,
      "stateMutability": "view",
      "type": "function",
      "signature": "0xdcfefcaa"
    },
    {
      "constant": false,
      "inputs": [
        {
          "name": "_id",
          "type": "uint256"
        },
        {
          "name": "_uid",
          "type": "uint256"
        },
        {
          "name": "_name",
          "type": "string"
        },
        {
          "name": "_owner",
          "type": "address"
        },
        {
          "name": "_hash",
          "type": "string"
        },
        {
          "name": "_price",
          "type": "uint256"
        }
      ],
      "name": "registerCopyright",
      "outputs": [],
      "payable": false,
      "stateMutability": "nonpayable",
      "type": "function",
      "signature": "0x5e21a28c"
    },
    {
      "constant": false,
      "inputs": [
        {
          "name": "buyerid",
          "type": "uint256"
        },
        {
          "name": "songid",
          "type": "uint256"
        }
      ],
      "name": "buyLicense",
      "outputs": [],
      "payable": true,
      "stateMutability": "payable",
      "type": "function",
      "signature": "0x98d44535"
    },
    {
      "constant": true,
      "inputs": [
        {
          "name": "_uid",
          "type": "uint256"
        },
        {
          "name": "_sid",
          "type": "uint256"
        }
      ],
      "name": "checkPurchased",
      "outputs": [
        {
          "name": "",
          "type": "bool"
        }
      ],
      "payable": false,
      "stateMutability": "view",
      "type": "function",
      "signature": "0x34bd2a71"
    },
    {
      "constant": true,
      "inputs": [
        {
          "name": "_sid",
          "type": "uint256"
        }
      ],
      "name": "songInfo",
      "outputs": [
        {
          "name": "_id",
          "type": "uint256"
        },
        {
          "name": "_name",
          "type": "string"
        },
        {
          "name": "_owner",
          "type": "address"
        },
        {
          "name": "_hash",
          "type": "string"
        },
        {
          "name": "_price",
          "type": "uint256"
        },
        {
          "name": "_licenseHolderes",
          "type": "uint256[]"
        }
      ],
      "payable": false,
      "stateMutability": "view",
      "type": "function",
      "signature": "0x4e692b50"
    },
    {
      "constant": true,
      "inputs": [
        {
          "name": "_sid",
          "type": "uint256"
        },
        {
          "name": "_uid",
          "type": "uint256"
        }
      ],
      "name": "getSong",
      "outputs": [
        {
          "name": "_name",
          "type": "string"
        },
        {
          "name": "_hash",
          "type": "string"
        }
      ],
      "payable": false,
      "stateMutability": "view",
      "type": "function",
      "signature": "0xa23b9ecc"
    }
  ],
  "bytecode": "0x608060405234801561001057600080fd5b50611b10806100206000396000f3fe608060405260043610610099576000357c0100000000000000000000000000000000000000000000000000000000900463ffffffff16806334bd2a711461009e5780634e692b50146100fb57806358129d39146102a45780635e21a28c146103965780636a1d1ecd1461053357806398d4453514610586578063a23b9ecc146105be578063b0467deb146106e8578063dcfefcaa14610874575b600080fd5b3480156100aa57600080fd5b506100e1600480360360408110156100c157600080fd5b8101908080359060200190929190803590602001909291905050506108c7565b604051808215151515815260200191505060405180910390f35b34801561010757600080fd5b506101346004803603602081101561011e57600080fd5b8101908080359060200190929190505050610924565b60405180878152602001806020018673ffffffffffffffffffffffffffffffffffffffff1673ffffffffffffffffffffffffffffffffffffffff1681526020018060200185815260200180602001848103845289818151815260200191508051906020019080838360005b838110156101ba57808201518184015260208101905061019f565b50505050905090810190601f1680156101e75780820380516001836020036101000a031916815260200191505b50848103835287818151815260200191508051906020019080838360005b83811015610220578082015181840152602081019050610205565b50505050905090810190601f16801561024d5780820380516001836020036101000a031916815260200191505b50848103825285818151815260200191508051906020019060200280838360005b8381101561028957808201518184015260208101905061026e565b50505050905001995050505050505050505060405180910390f35b3480156102b057600080fd5b50610394600480360360608110156102c757600080fd5b8101908080359060200190929190803590602001906401000000008111156102ee57600080fd5b82018360208201111561030057600080fd5b8035906020019184600183028401116401000000008311171561032257600080fd5b91908080601f016020809104026020016040519081016040528093929190818152602001838380828437600081840152601f19601f820116905080830192505050505050509192919290803573ffffffffffffffffffffffffffffffffffffffff169060200190929190505050610bcf565b005b3480156103a257600080fd5b50610531600480360360c08110156103b957600080fd5b810190808035906020019092919080359060200190929190803590602001906401000000008111156103ea57600080fd5b8201836020820111156103fc57600080fd5b8035906020019184600183028401116401000000008311171561041e57600080fd5b91908080601f016020809104026020016040519081016040528093929190818152602001838380828437600081840152601f19601f820116905080830192505050505050509192919290803573ffffffffffffffffffffffffffffffffffffffff169060200190929190803590602001906401000000008111156104a157600080fd5b8201836020820111156104b357600080fd5b803590602001918460018302840111640100000000831117156104d557600080fd5b91908080601f016020809104026020016040519081016040528093929190818152602001838380828437600081840152601f19601f82011690508083019250505050505050919291929080359060200190929190505050610d53565b005b34801561053f57600080fd5b5061056c6004803603602081101561055657600080fd5b8101908080359060200190929190505050611160565b604051808215151515815260200191505060405180910390f35b6105bc6004803603604081101561059c57600080fd5b81019080803590602001909291908035906020019092919050505061118d565b005b3480156105ca57600080fd5b50610601600480360360408110156105e157600080fd5b81019080803590602001909291908035906020019092919050505061149b565b604051808060200180602001838103835285818151815260200191508051906020019080838360005b8381101561064557808201518184015260208101905061062a565b50505050905090810190601f1680156106725780820380516001836020036101000a031916815260200191505b50838103825284818151815260200191508051906020019080838360005b838110156106ab578082015181840152602081019050610690565b50505050905090810190601f1680156106d85780820380516001836020036101000a031916815260200191505b5094505050505060405180910390f35b3480156106f457600080fd5b506107216004803603602081101561070b57600080fd5b810190808035906020019092919050505061177d565b604051808881526020018773ffffffffffffffffffffffffffffffffffffffff1673ffffffffffffffffffffffffffffffffffffffff168152602001806020018681526020018581526020018060200180602001848103845289818151815260200191508051906020019080838360005b838110156107ad578082015181840152602081019050610792565b50505050905090810190601f1680156107da5780820380516001836020036101000a031916815260200191505b50848103835286818151815260200191508051906020019060200280838360005b838110156108165780820151818401526020810190506107fb565b50505050905001848103825285818151815260200191508051906020019060200280838360005b8381101561085857808201518184015260208101905061083d565b505050509050019a505050505050505050505060405180910390f35b34801561088057600080fd5b506108ad6004803603602081101561089757600080fd5b8101908080359060200190929190505050611a13565b604051808215151515815260200191505060405180910390f35b6000806000838152602001908152602001600020600801600084815260200190815260200160002060009054906101000a900460ff168061091c57508260008084815260200190815260200160002060010154145b905092915050565b60006060600060606000606061093987611a13565b15156109ad576040517f08c379a00000000000000000000000000000000000000000000000000000000081526004018080602001828103825260128152602001807f736f6e6720646f65736e6f74206578697374000000000000000000000000000081525060200191505060405180910390fd5b8695506000808881526020019081526020016000206003018054600181600116156101000203166002900480601f016020809104026020016040519081016040528092919081815260200182805460018160011615610100020316600290048015610a595780601f10610a2e57610100808354040283529160200191610a59565b820191906000526020600020905b815481529060010190602001808311610a3c57829003601f168201915b5050505050945060008088815260200190815260200160002060040160009054906101000a900473ffffffffffffffffffffffffffffffffffffffff1693506000808881526020019081526020016000206005018054600181600116156101000203166002900480601f016020809104026020016040519081016040528092919081815260200182805460018160011615610100020316600290048015610b415780601f10610b1657610100808354040283529160200191610b41565b820191906000526020600020905b815481529060010190602001808311610b2457829003601f168201915b50505050509250600080888152602001908152602001600020600601549150600080888152602001908152602001600020600701805480602002602001604051908101604052809291908181526020018280548015610bbf57602002820191906000526020600020905b815481526020019060010190808311610bab575b5050505050905091939550919395565b610bd883611160565b151515610c4d576040517f08c379a000000000000000000000000000000000000000000000000000000000815260040180806020018281038252600b8152602001807f757365722065786973747300000000000000000000000000000000000000000081525060200191505060405180910390fd5b826001600085815260200190815260200160002060000181905550600180600085815260200190815260200160002060010160006101000a81548160ff02191690831515021790555081600160008581526020019081526020016000206002019080519060200190610cc0929190611a3f565b50806001600085815260200190815260200160002060030160006101000a81548173ffffffffffffffffffffffffffffffffffffffff021916908373ffffffffffffffffffffffffffffffffffffffff1602179055506000600160008581526020019081526020016000206004018190555060006001600085815260200190815260200160002060050181905550505050565b610d5c85611160565b1515610dd0576040517f08c379a00000000000000000000000000000000000000000000000000000000081526004018080602001828103825260138152602001807f7573657220646f6573206e6f742065786973740000000000000000000000000081525060200191505060405180910390fd5b610dd986611a13565b151515610e4e576040517f08c379a00000000000000000000000000000000000000000000000000000000081526004018080602001828103825260118152602001807f6475706c696361746520736f6e6720696400000000000000000000000000000081525060200191505060405180910390fd5b6002826040518082805190602001908083835b602083101515610e865780518252602082019150602081019050602083039250610e61565b6001836020036101000a038019825116818451168082178552505050505050905001915050908152602001604051809103902060009054906101000a900460ff16151515610f3c576040517f08c379a00000000000000000000000000000000000000000000000000000000081526004018080602001828103825260128152602001807f736f6e672068617320636f70797269676874000000000000000000000000000081525060200191505060405180910390fd5b8560008088815260200190815260200160002060000181905550600160008088815260200190815260200160002060020160006101000a81548160ff021916908315150217905550836000808881526020019081526020016000206003019080519060200190610fad929190611a3f565b508260008088815260200190815260200160002060040160006101000a81548173ffffffffffffffffffffffffffffffffffffffff021916908373ffffffffffffffffffffffffffffffffffffffff1602179055508460008088815260200190815260200160002060010181905550816000808881526020019081526020016000206005019080519060200190611045929190611a3f565b5060016002836040518082805190602001908083835b602083101515611080578051825260208201915060208101905060208303925061105b565b6001836020036101000a038019825116818451168082178552505050505050905001915050908152602001604051809103902060006101000a81548160ff02191690831515021790555080600080888152602001908152602001600020600601819055506001600086815260200190815260200160002060070186908060018154018082558091505090600182039060005260206000200160009091929091909150555060016000868152602001908152602001600020600701805490506001600087815260200190815260200160002060050181905550505050505050565b60006001600083815260200190815260200160002060010160009054906101000a900460ff169050919050565b6000808281526020019081526020016000206006015434111515611219576040517f08c379a00000000000000000000000000000000000000000000000000000000081526004018080602001828103825260158152602001807f76616c7565206c657373207468616e207072696365000000000000000000000081525060200191505060405180910390fd5b61122282611160565b1515611296576040517f08c379a00000000000000000000000000000000000000000000000000000000081526004018080602001828103825260148152602001807f7573657220646f65736e206e6f7420657869737400000000000000000000000081525060200191505060405180910390fd5b61129f81611a13565b1515611313576040517f08c379a00000000000000000000000000000000000000000000000000000000081526004018080602001828103825260138152602001807f736f6e6720646f6573206e6f742065786973740000000000000000000000000081525060200191505060405180910390fd5b61131d82826108c7565b15151561132957600080fd5b60016000838152602001908152602001600020600601819080600181540180825580915050906001820390600052602060002001600090919290919091505550600160008381526020019081526020016000206006018054905060016000848152602001908152602001600020600401819055506000808281526020019081526020016000206007018290806001815401808255809150509060018203906000526020600020016000909192909190915055506001600080838152602001908152602001600020600801600084815260200190815260200160002060006101000a81548160ff02191690831515021790555060008082815260200190815260200160002060040160009054906101000a900473ffffffffffffffffffffffffffffffffffffffff1673ffffffffffffffffffffffffffffffffffffffff166108fc349081150290604051600060405180830381858888f19350505050158015611496573d6000803e3d6000fd5b505050565b6060806114a783611160565b151561151b576040517f08c379a00000000000000000000000000000000000000000000000000000000081526004018080602001828103825260128152602001807f7573657220646f65736e6f74206578697374000000000000000000000000000081525060200191505060405180910390fd5b61152484611a13565b1515611598576040517f08c379a00000000000000000000000000000000000000000000000000000000081526004018080602001828103825260128152602001807f736f6e6720646f65736e6f74206578697374000000000000000000000000000081525060200191505060405180910390fd5b6115a283856108c7565b1515611616576040517f08c379a00000000000000000000000000000000000000000000000000000000081526004018080602001828103825260198152602001807f7573657220646f65736e6f742068617665206c6963656e73650000000000000081525060200191505060405180910390fd5b6000808581526020019081526020016000206003018054600181600116156101000203166002900480601f0160208091040260200160405190810160405280929190818152602001828054600181600116156101000203166002900480156116bf5780601f10611694576101008083540402835291602001916116bf565b820191906000526020600020905b8154815290600101906020018083116116a257829003601f168201915b505050505091506000808581526020019081526020016000206005018054600181600116156101000203166002900480601f01602080910402602001604051908101604052809291908181526020018280546001816001161561010002031660029004801561176f5780601f106117445761010080835404028352916020019161176f565b820191906000526020600020905b81548152906001019060200180831161175257829003601f168201915b505050505090509250929050565b600080606060008060608061179188611160565b1515611805576040517f08c379a00000000000000000000000000000000000000000000000000000000081526004018080602001828103825260138152602001807f7573657220646f6573206e6f742065786973740000000000000000000000000081525060200191505060405180910390fd5b60016000898152602001908152602001600020600001549650600160008881526020019081526020016000206002018054600181600116156101000203166002900480601f0160208091040260200160405190810160405280929190818152602001828054600181600116156101000203166002900480156118c85780601f1061189d576101008083540402835291602001916118c8565b820191906000526020600020905b8154815290600101906020018083116118ab57829003601f168201915b505050505094506001600088815260200190815260200160002060030160009054906101000a900473ffffffffffffffffffffffffffffffffffffffff16955060016000888152602001908152602001600020600401549350600160008881526020019081526020016000206005015492506001600088815260200190815260200160002060060180548060200260200160405190810160405280929190818152602001828054801561199a57602002820191906000526020600020905b815481526020019060010190808311611986575b5050505050915060016000888152602001908152602001600020600701805480602002602001604051908101604052809291908181526020018280548015611a0157602002820191906000526020600020905b8154815260200190600101908083116119ed575b50505050509050919395979092949650565b600080600083815260200190815260200160002060020160009054906101000a900460ff169050919050565b828054600181600116156101000203166002900490600052602060002090601f016020900481019282601f10611a8057805160ff1916838001178555611aae565b82800160010185558215611aae579182015b82811115611aad578251825591602001919060010190611a92565b5b509050611abb9190611abf565b5090565b611ae191905b80821115611add576000816000905550600101611ac5565b5090565b9056fea165627a7a7230582055fd188888a699fa02ff094116b80fdfed7239adbe5246a5f0d8f51c115c0c350029",
  "source": "pragma solidity ^0.5.0;\ncontract copyright{\n    struct song{\n        uint id;\n        uint ownerid;\n        bool reg;\n        string name;\n        address payable owner;\n        string hash;\n        uint price;\n        uint[] licenseHoldersList;\n        mapping(uint =>bool) licenseHolders;\n    }\n    struct user{\n        uint id;\n        bool reg;\n        string name;\n        address payable addr;\n        uint purchasedCount;\n        uint publishedCount;\n        uint[] purchasedSongs;\n        uint[] publishedSongs;\n    }\n    mapping (uint =>song) songs;\n    mapping (uint => user) users;\n    mapping (string => bool) unique;\n\n    function registerUser(uint _id,string memory _name,address payable _addr) public {\n        require(!checkUserExists(_id),\"user exists\");\n        users[_id].id = _id;\n        users[_id].reg = true;\n        users[_id].name = _name;\n        users[_id].addr = _addr;\n         users[_id].purchasedCount = 0;\n         users[_id].publishedCount = 0;\n    }\n    function getUser(uint __id) public view returns(uint _id,address payable _addr,string memory _name,uint _purchasedCount,uint _publishedCount,uint[] memory _purchasedSongs,uint[] memory _publishedSongs){\n        require(checkUserExists(__id),\"user does not exist\");\n        _id =users[__id].id;\n        _name =users[_id].name;\n        _addr = users[_id].addr;\n        _purchasedCount = users[_id].purchasedCount;\n        _publishedCount = users[_id].publishedCount;\n        _purchasedSongs= users[_id].purchasedSongs;\n        _publishedSongs = users[_id].publishedSongs;\n    }\n    function checkUserExists(uint _uid) public view returns (bool) {\n        return users[_uid].reg;\n    }\n    function checkSongExists(uint _sid) public view returns (bool) {\n        return songs[_sid].reg;\n    }\n\n    function registerCopyright(uint _id ,uint _uid, string memory _name,address payable _owner,string memory _hash,uint _price) public {\n        require(checkUserExists(_uid),\"user does not exist\");\n        require(!checkSongExists(_id),\"duplicate song id\");\n        require(!unique[_hash],\"song has copyright\");\n        songs[_id].id = _id;\n        songs[_id].reg = true;\n        songs[_id].name = _name;\n        songs[_id].owner = _owner;\n        songs[_id].ownerid = _uid;\n        songs[_id].hash=_hash;\n        unique[_hash]=true;\n        songs[_id].price=_price;\n        users[_uid].publishedSongs.push(_id);\n        users[_uid].publishedCount=users[_uid].publishedSongs.length;\n    }\n    function buyLicense(uint buyerid,uint songid) public payable{\n        // users[buyerid].addr.send(msg.value);\n        require(msg.value>songs[songid].price,\"value less than price\");\n        require(checkUserExists(buyerid),\"user doesn not exist\");\n        require(checkSongExists(songid),\"song does not exist\");\n        require(!checkPurchased(buyerid,songid));\n        users[buyerid].purchasedSongs.push(songid);\n        users[buyerid].purchasedCount=users[buyerid].purchasedSongs.length;\n        songs[songid].licenseHoldersList.push(buyerid);\n        songs[songid].licenseHolders[buyerid]=true;\n        songs[songid].owner.transfer(msg.value);\n    }\n    function checkPurchased(uint _uid, uint _sid) public view returns (bool) {\n        return (songs[_sid].licenseHolders[_uid] ||songs[_sid].ownerid==_uid);\n    }\n\n    function songInfo(uint _sid) public view returns(uint _id,string memory _name,address payable _owner,string memory _hash,uint _price,uint[] memory _licenseHolderes){\n        require(checkSongExists(_sid),\"song doesnot exist\");\n        _id=_sid;\n        _name=songs[_sid].name;\n        _owner = songs[_sid].owner;\n        _hash=songs[_sid].hash;\n        _price=songs[_sid].price;\n        _licenseHolderes = songs[_sid].licenseHoldersList;\n    }\n    function getSong(uint _sid,uint _uid) public view returns(string memory _name,string memory _hash) {\n      require(checkUserExists(_uid),\"user doesnot exist\");\n      require(checkSongExists(_sid),\"song doesnot exist\");\n      require(checkPurchased(_uid, _sid),\"user doesnot have license\");\n      _name = songs[_sid].name;\n      _hash = songs[_sid].hash;\n    }\n}\n",
  "sourcePath": "/home/hp/dcm_dapp/contracts/copyright.sol",
  "compiler": {
    "name": "solc",
    "version": "0.5.0+commit.1d4f565a.Emscripten.clang"
  },
  "schemaVersion": "3.0.6",
  "updatedAt": "2019-05-24T08:43:26.003Z",
  "devdoc": {
    "methods": {}
  },
  "userdoc": {
    "methods": {}
  }
}