{
  "contractName": "copyright",
  "abi": [
    {
      "constant": false,
      "inputs": [
        {
          "name": "_id",
          "type": "uint256"
        },
        {
          "name": "_name",
          "type": "string"
        },
        {
          "name": "_addr",
          "type": "address"
        }
      ],
      "name": "registerUser",
      "outputs": [],
      "payable": false,
      "stateMutability": "nonpayable",
      "type": "function",
      "signature": "0x58129d39"
    },
    {
      "constant": true,
      "inputs": [
        {
          "name": "__id",
          "type": "uint256"
        }
      ],
      "name": "getUser",
      "outputs": [
        {
          "name": "_id",
          "type": "uint256"
        },
        {
          "name": "_addr",
          "type": "address"
        },
        {
          "name": "_name",
          "type": "string"
        },
        {
          "name": "_purchasedCount",
          "type": "uint256"
        },
        {
          "name": "_publishedCount",
          "type": "uint256"
        },
        {
          "name": "_purchasedSongs",
          "type": "uint256[]"
        },
        {
          "name": "_publishedSongs",
          "type": "uint256[]"
        }
      ],
      "payable": false,
      "stateMutability": "view",
      "type": "function",
      "signature": "0xb0467deb"
    },
    {
      "constant": false,
      "inputs": [
        {
          "name": "_uid",
          "type": "uint256"
        }
      ],
      "name": "checkUserExists",
      "outputs": [
        {
          "name": "",
          "type": "bool"
        }
      ],
      "payable": false,
      "stateMutability": "nonpayable",
      "type": "function",
      "signature": "0x6a1d1ecd"
    },
    {
      "constant": false,
      "inputs": [
        {
          "name": "_sid",
          "type": "uint256"
        }
      ],
      "name": "checkSongExists",
      "outputs": [
        {
          "name": "",
          "type": "bool"
        }
      ],
      "payable": false,
      "stateMutability": "nonpayable",
      "type": "function",
      "signature": "0xdcfefcaa"
    },
    {
      "constant": false,
      "inputs": [
        {
          "name": "_id",
          "type": "uint256"
        },
        {
          "name": "_uid",
          "type": "uint256"
        },
        {
          "name": "_name",
          "type": "string"
        },
        {
          "name": "_owner",
          "type": "address"
        },
        {
          "name": "_url",
          "type": "string"
        },
        {
          "name": "_price",
          "type": "uint256"
        }
      ],
      "name": "registerCopyright",
      "outputs": [],
      "payable": false,
      "stateMutability": "nonpayable",
      "type": "function",
      "signature": "0x5e21a28c"
    },
    {
      "constant": false,
      "inputs": [
        {
          "name": "buyerid",
          "type": "uint256"
        },
        {
          "name": "songid",
          "type": "uint256"
        }
      ],
      "name": "buyLicence",
      "outputs": [],
      "payable": true,
      "stateMutability": "payable",
      "type": "function",
      "signature": "0xb7b8f2ad"
    },
    {
      "constant": true,
      "inputs": [
        {
          "name": "_uid",
          "type": "uint256"
        },
        {
          "name": "_sid",
          "type": "uint256"
        }
      ],
      "name": "checkPurchased",
      "outputs": [
        {
          "name": "",
          "type": "bool"
        }
      ],
      "payable": false,
      "stateMutability": "view",
      "type": "function",
      "signature": "0x34bd2a71"
    },
    {
      "constant": true,
      "inputs": [
        {
          "name": "_sid",
          "type": "uint256"
        }
      ],
      "name": "getSong",
      "outputs": [
        {
          "name": "_id",
          "type": "uint256"
        },
        {
          "name": "_name",
          "type": "string"
        },
        {
          "name": "_owner",
          "type": "address"
        },
        {
          "name": "_url",
          "type": "string"
        },
        {
          "name": "_price",
          "type": "uint256"
        },
        {
          "name": "_licenseHolderes",
          "type": "uint256[]"
        }
      ],
      "payable": false,
      "stateMutability": "view",
      "type": "function",
      "signature": "0x42acaa66"
    }
  ],
  "bytecode": "0x608060405234801561001057600080fd5b5061119e806100206000396000f3fe60806040526004361061008e576000357c0100000000000000000000000000000000000000000000000000000000900463ffffffff16806334bd2a711461009357806342acaa66146100f057806358129d39146102995780635e21a28c1461038b5780636a1d1ecd14610528578063b0467deb1461057b578063b7b8f2ad14610707578063dcfefcaa1461073f575b600080fd5b34801561009f57600080fd5b506100d6600480360360408110156100b657600080fd5b810190808035906020019092919080359060200190929190505050610792565b604051808215151515815260200191505060405180910390f35b3480156100fc57600080fd5b506101296004803603602081101561011357600080fd5b81019080803590602001909291905050506107d0565b60405180878152602001806020018673ffffffffffffffffffffffffffffffffffffffff1673ffffffffffffffffffffffffffffffffffffffff1681526020018060200185815260200180602001848103845289818151815260200191508051906020019080838360005b838110156101af578082015181840152602081019050610194565b50505050905090810190601f1680156101dc5780820380516001836020036101000a031916815260200191505b50848103835287818151815260200191508051906020019080838360005b838110156102155780820151818401526020810190506101fa565b50505050905090810190601f1680156102425780820380516001836020036101000a031916815260200191505b50848103825285818151815260200191508051906020019060200280838360005b8381101561027e578082015181840152602081019050610263565b50505050905001995050505050505050505060405180910390f35b3480156102a557600080fd5b50610389600480360360608110156102bc57600080fd5b8101908080359060200190929190803590602001906401000000008111156102e357600080fd5b8201836020820111156102f557600080fd5b8035906020019184600183028401116401000000008311171561031757600080fd5b91908080601f016020809104026020016040519081016040528093929190818152602001838380828437600081840152601f19601f820116905080830192505050505050509192919290803573ffffffffffffffffffffffffffffffffffffffff1690602001909291905050506109fe565b005b34801561039757600080fd5b50610526600480360360c08110156103ae57600080fd5b810190808035906020019092919080359060200190929190803590602001906401000000008111156103df57600080fd5b8201836020820111156103f157600080fd5b8035906020019184600183028401116401000000008311171561041357600080fd5b91908080601f016020809104026020016040519081016040528093929190818152602001838380828437600081840152601f19601f820116905080830192505050505050509192919290803573ffffffffffffffffffffffffffffffffffffffff1690602001909291908035906020019064010000000081111561049657600080fd5b8201836020820111156104a857600080fd5b803590602001918460018302840111640100000000831117156104ca57600080fd5b91908080601f016020809104026020016040519081016040528093929190818152602001838380828437600081840152601f19601f82011690508083019250505050505050919291929080359060200190929190505050610b04565b005b34801561053457600080fd5b506105616004803603602081101561054b57600080fd5b8101908080359060200190929190505050610c9e565b604051808215151515815260200191505060405180910390f35b34801561058757600080fd5b506105b46004803603602081101561059e57600080fd5b8101908080359060200190929190505050610ccb565b604051808881526020018773ffffffffffffffffffffffffffffffffffffffff1673ffffffffffffffffffffffffffffffffffffffff168152602001806020018681526020018581526020018060200180602001848103845289818151815260200191508051906020019080838360005b83811015610640578082015181840152602081019050610625565b50505050905090810190601f16801561066d5780820380516001836020036101000a031916815260200191505b50848103835286818151815260200191508051906020019060200280838360005b838110156106a957808201518184015260208101905061068e565b50505050905001848103825285818151815260200191508051906020019060200280838360005b838110156106eb5780820151818401526020810190506106d0565b505050509050019a505050505050505050505060405180910390f35b61073d6004803603604081101561071d57600080fd5b810190808035906020019092919080359060200190929190505050610ee4565b005b34801561074b57600080fd5b506107786004803603602081101561076257600080fd5b81019080803590602001909291905050506110a1565b604051808215151515815260200191505060405180910390f35b6000806000838152602001908152602001600020600701600084815260200190815260200160002060009054906101000a900460ff16905092915050565b6000606060006060600060608695506000808881526020019081526020016000206002018054600181600116156101000203166002900480601f0160208091040260200160405190810160405280929190818152602001828054600181600116156101000203166002900480156108885780601f1061085d57610100808354040283529160200191610888565b820191906000526020600020905b81548152906001019060200180831161086b57829003601f168201915b5050505050945060008088815260200190815260200160002060030160009054906101000a900473ffffffffffffffffffffffffffffffffffffffff1693506000808881526020019081526020016000206004018054600181600116156101000203166002900480601f0160208091040260200160405190810160405280929190818152602001828054600181600116156101000203166002900480156109705780601f1061094557610100808354040283529160200191610970565b820191906000526020600020905b81548152906001019060200180831161095357829003601f168201915b505050505092506000808881526020019081526020016000206005015491506000808881526020019081526020016000206006018054806020026020016040519081016040528092919081815260200182805480156109ee57602002820191906000526020600020905b8154815260200190600101908083116109da575b5050505050905091939550919395565b826001600085815260200190815260200160002060000181905550600180600085815260200190815260200160002060010160006101000a81548160ff02191690831515021790555081600160008581526020019081526020016000206002019080519060200190610a719291906110cd565b50806001600085815260200190815260200160002060030160006101000a81548173ffffffffffffffffffffffffffffffffffffffff021916908373ffffffffffffffffffffffffffffffffffffffff1602179055506000600160008581526020019081526020016000206004018190555060006001600085815260200190815260200160002060050181905550505050565b610b0d85610c9e565b1515610b1857600080fd5b8560008088815260200190815260200160002060000181905550600160008088815260200190815260200160002060010160006101000a81548160ff021916908315150217905550836000808881526020019081526020016000206002019080519060200190610b899291906110cd565b508260008088815260200190815260200160002060030160006101000a81548173ffffffffffffffffffffffffffffffffffffffff021916908373ffffffffffffffffffffffffffffffffffffffff160217905550816000808881526020019081526020016000206004019080519060200190610c079291906110cd565b5080600080888152602001908152602001600020600501819055506001600086815260200190815260200160002060070186908060018154018082558091505090600182039060005260206000200160009091929091909150555060016000878152602001908152602001600020600701805490506001600087815260200190815260200160002060050181905550505050505050565b60006001600083815260200190815260200160002060010160009054906101000a900460ff169050919050565b600080606060008060608060016000898152602001908152602001600020600001549650600160008881526020019081526020016000206002018054600181600116156101000203166002900480601f016020809104026020016040519081016040528092919081815260200182805460018160011615610100020316600290048015610d995780601f10610d6e57610100808354040283529160200191610d99565b820191906000526020600020905b815481529060010190602001808311610d7c57829003601f168201915b505050505094506001600088815260200190815260200160002060030160009054906101000a900473ffffffffffffffffffffffffffffffffffffffff169550600160008881526020019081526020016000206004015493506001600088815260200190815260200160002060050154925060016000888152602001908152602001600020600601805480602002602001604051908101604052809291908181526020018280548015610e6b57602002820191906000526020600020905b815481526020019060010190808311610e57575b5050505050915060016000888152602001908152602001600020600701805480602002602001604051908101604052809291908181526020018280548015610ed257602002820191906000526020600020905b815481526020019060010190808311610ebe575b50505050509050919395979092949650565b6000808281526020019081526020016000206005015434111515610f0757600080fd5b610f1082610c9e565b1515610f1b57600080fd5b610f24816110a1565b1515610f2f57600080fd5b60016000838152602001908152602001600020600601819080600181540180825580915050906001820390600052602060002001600090919290919091505550600160008381526020019081526020016000206006018054905060016000848152602001908152602001600020600401819055506000808281526020019081526020016000206006018290806001815401808255809150509060018203906000526020600020016000909192909190915055506001600080838152602001908152602001600020600701600084815260200190815260200160002060006101000a81548160ff02191690831515021790555060008082815260200190815260200160002060030160009054906101000a900473ffffffffffffffffffffffffffffffffffffffff1673ffffffffffffffffffffffffffffffffffffffff166108fc349081150290604051600060405180830381858888f1935050505015801561109c573d6000803e3d6000fd5b505050565b600080600083815260200190815260200160002060010160009054906101000a900460ff169050919050565b828054600181600116156101000203166002900490600052602060002090601f016020900481019282601f1061110e57805160ff191683800117855561113c565b8280016001018555821561113c579182015b8281111561113b578251825591602001919060010190611120565b5b509050611149919061114d565b5090565b61116f91905b8082111561116b576000816000905550600101611153565b5090565b9056fea165627a7a7230582098a49f6c56f9973334ee4efb24aaac4c0d0493c083f75d77ef762ba2c9704f2e0029",
  "source": "pragma solidity ^0.5.0;\ncontract copyright{\n    struct song{\n        uint id;\n        bool reg;\n        string name;\n        address payable owner;\n        string url;\n        uint price;\n        uint[] licenseHoldersList;\n        mapping(uint =>bool) licenseHolders;\n    }\n    struct user{\n        uint id;\n        bool reg;\n        string name;\n        address payable addr;\n        uint purchasedCount;\n        uint publishedCount;\n        uint[] purchasedSongs;\n        uint[] publishedSongs;\n    }\n    mapping (uint =>song) songs;\n    mapping (uint => user) users;\n\n    function registerUser(uint _id,string memory _name,address payable _addr) public {\n        users[_id].id = _id;\n        users[_id].reg = true;\n        users[_id].name = _name;\n        users[_id].addr = _addr;\n         users[_id].purchasedCount = 0;\n         users[_id].publishedCount = 0;\n    }\n    function getUser(uint __id) public view returns(uint _id,address payable _addr,string memory _name,uint _purchasedCount,uint _publishedCount,uint[] memory _purchasedSongs,uint[] memory _publishedSongs){\n        _id =users[__id].id;\n        _name =users[_id].name;\n        _addr = users[_id].addr;\n        _purchasedCount = users[_id].purchasedCount;\n        _publishedCount = users[_id].publishedCount;\n        _purchasedSongs= users[_id].purchasedSongs;\n        _publishedSongs = users[_id].publishedSongs;\n    }\n    function checkUserExists(uint _uid) public returns (bool) {\n        return users[_uid].reg;\n    }\n    function checkSongExists(uint _sid) public returns (bool) {\n        return songs[_sid].reg;\n    }\n\n    function registerCopyright(uint _id ,uint _uid, string memory _name,address payable _owner,string memory _url,uint _price) public {\n        require(checkUserExists(_uid));\n        songs[_id].id = _id;\n        songs[_id].reg = true;\n        songs[_id].name = _name;\n        songs[_id].owner = _owner;\n        songs[_id].url=_url;\n        songs[_id].price=_price;\n        users[_uid].publishedSongs.push(_id);\n        users[_uid].publishedCount=users[_id].publishedSongs.length;\n    }\n    function buyLicence(uint buyerid,uint songid) public payable{\n        // users[buyerid].addr.send(msg.value);\n        require(msg.value>songs[songid].price);\n        require(checkUserExists(buyerid));\n        require(checkSongExists(songid));\n        users[buyerid].purchasedSongs.push(songid);\n        users[buyerid].purchasedCount=users[buyerid].purchasedSongs.length;\n        songs[songid].licenseHoldersList.push(buyerid);\n        songs[songid].licenseHolders[buyerid]=true;\n        songs[songid].owner.transfer(msg.value);\n    }\n    function checkPurchased(uint _uid, uint _sid) public view returns (bool) {\n        return songs[_sid].licenseHolders[_uid];\n    }\n\n    function getSong(uint _sid) public view returns(uint _id,string memory _name,address payable _owner,string memory _url,uint _price,uint[] memory _licenseHolderes){\n        // require(checkSongExists(_sid));\n        _id=_sid;\n        _name=songs[_sid].name;\n        _owner = songs[_sid].owner;\n        _url=songs[_sid].url;\n        _price=songs[_sid].price;\n        _licenseHolderes = songs[_sid].licenseHoldersList;\n    }\n}\n",
  "sourcePath": "/home/hp/dcm_dapp/contracts/copyright.sol",
  "compiler": {
    "name": "solc",
    "version": "0.5.0+commit.1d4f565a.Emscripten.clang"
  },
  "schemaVersion": "3.0.6",
  "updatedAt": "2019-05-17T09:32:20.469Z",
  "devdoc": {
    "methods": {}
  },
  "userdoc": {
    "methods": {}
  }
}