{
  "contractName": "copyright",
  "abi": [
    {
      "constant": false,
      "inputs": [
        {
          "name": "_id",
          "type": "uint256"
        },
        {
          "name": "_name",
          "type": "string"
        },
        {
          "name": "_addr",
          "type": "address"
        }
      ],
      "name": "registerUser",
      "outputs": [],
      "payable": false,
      "stateMutability": "nonpayable",
      "type": "function",
      "signature": "0x58129d39"
    },
    {
      "constant": true,
      "inputs": [
        {
          "name": "__id",
          "type": "uint256"
        }
      ],
      "name": "getUser",
      "outputs": [
        {
          "name": "_id",
          "type": "uint256"
        },
        {
          "name": "_addr",
          "type": "address"
        },
        {
          "name": "_name",
          "type": "string"
        },
        {
          "name": "_purchasedCount",
          "type": "uint256"
        },
        {
          "name": "_publishedCount",
          "type": "uint256"
        },
        {
          "name": "_purchasedSongs",
          "type": "uint256[]"
        },
        {
          "name": "_publishedSongs",
          "type": "uint256[]"
        }
      ],
      "payable": false,
      "stateMutability": "view",
      "type": "function",
      "signature": "0xb0467deb"
    },
    {
      "constant": true,
      "inputs": [
        {
          "name": "_uid",
          "type": "uint256"
        }
      ],
      "name": "checkUserExists",
      "outputs": [
        {
          "name": "",
          "type": "bool"
        }
      ],
      "payable": false,
      "stateMutability": "view",
      "type": "function",
      "signature": "0x6a1d1ecd"
    },
    {
      "constant": true,
      "inputs": [
        {
          "name": "_sid",
          "type": "uint256"
        }
      ],
      "name": "checkSongExists",
      "outputs": [
        {
          "name": "",
          "type": "bool"
        }
      ],
      "payable": false,
      "stateMutability": "view",
      "type": "function",
      "signature": "0xdcfefcaa"
    },
    {
      "constant": false,
      "inputs": [
        {
          "name": "_id",
          "type": "uint256"
        },
        {
          "name": "_uid",
          "type": "uint256"
        },
        {
          "name": "_name",
          "type": "string"
        },
        {
          "name": "_owner",
          "type": "address"
        },
        {
          "name": "_hash",
          "type": "string"
        },
        {
          "name": "_price",
          "type": "uint256"
        }
      ],
      "name": "registerCopyright",
      "outputs": [],
      "payable": false,
      "stateMutability": "nonpayable",
      "type": "function",
      "signature": "0x5e21a28c"
    },
    {
      "constant": false,
      "inputs": [
        {
          "name": "buyerid",
          "type": "uint256"
        },
        {
          "name": "songid",
          "type": "uint256"
        }
      ],
      "name": "buyLicence",
      "outputs": [],
      "payable": true,
      "stateMutability": "payable",
      "type": "function",
      "signature": "0xb7b8f2ad"
    },
    {
      "constant": true,
      "inputs": [
        {
          "name": "_uid",
          "type": "uint256"
        },
        {
          "name": "_sid",
          "type": "uint256"
        }
      ],
      "name": "checkPurchased",
      "outputs": [
        {
          "name": "",
          "type": "bool"
        }
      ],
      "payable": false,
      "stateMutability": "view",
      "type": "function",
      "signature": "0x34bd2a71"
    },
    {
      "constant": true,
      "inputs": [
        {
          "name": "_sid",
          "type": "uint256"
        }
      ],
      "name": "songInfo",
      "outputs": [
        {
          "name": "_id",
          "type": "uint256"
        },
        {
          "name": "_name",
          "type": "string"
        },
        {
          "name": "_owner",
          "type": "address"
        },
        {
          "name": "_hash",
          "type": "string"
        },
        {
          "name": "_price",
          "type": "uint256"
        },
        {
          "name": "_licenseHolderes",
          "type": "uint256[]"
        }
      ],
      "payable": false,
      "stateMutability": "view",
      "type": "function",
      "signature": "0x4e692b50"
    },
    {
      "constant": true,
      "inputs": [
        {
          "name": "_sid",
          "type": "uint256"
        },
        {
          "name": "_uid",
          "type": "uint256"
        }
      ],
      "name": "getSong",
      "outputs": [
        {
          "name": "_name",
          "type": "string"
        },
        {
          "name": "_hash",
          "type": "string"
        }
      ],
      "payable": false,
      "stateMutability": "view",
      "type": "function",
      "signature": "0xa23b9ecc"
    }
  ],
  "bytecode": "0x608060405234801561001057600080fd5b5061143d806100206000396000f3fe608060405260043610610099576000357c0100000000000000000000000000000000000000000000000000000000900463ffffffff16806334bd2a711461009e5780634e692b50146100fb57806358129d39146102a45780635e21a28c146103965780636a1d1ecd14610533578063a23b9ecc14610586578063b0467deb146106b0578063b7b8f2ad1461083c578063dcfefcaa14610874575b600080fd5b3480156100aa57600080fd5b506100e1600480360360408110156100c157600080fd5b8101908080359060200190929190803590602001909291905050506108c7565b604051808215151515815260200191505060405180910390f35b34801561010757600080fd5b506101346004803603602081101561011e57600080fd5b8101908080359060200190929190505050610905565b60405180878152602001806020018673ffffffffffffffffffffffffffffffffffffffff1673ffffffffffffffffffffffffffffffffffffffff1681526020018060200185815260200180602001848103845289818151815260200191508051906020019080838360005b838110156101ba57808201518184015260208101905061019f565b50505050905090810190601f1680156101e75780820380516001836020036101000a031916815260200191505b50848103835287818151815260200191508051906020019080838360005b83811015610220578082015181840152602081019050610205565b50505050905090810190601f16801561024d5780820380516001836020036101000a031916815260200191505b50848103825285818151815260200191508051906020019060200280838360005b8381101561028957808201518184015260208101905061026e565b50505050905001995050505050505050505060405180910390f35b3480156102b057600080fd5b50610394600480360360608110156102c757600080fd5b8101908080359060200190929190803590602001906401000000008111156102ee57600080fd5b82018360208201111561030057600080fd5b8035906020019184600183028401116401000000008311171561032257600080fd5b91908080601f016020809104026020016040519081016040528093929190818152602001838380828437600081840152601f19601f820116905080830192505050505050509192919290803573ffffffffffffffffffffffffffffffffffffffff169060200190929190505050610b33565b005b3480156103a257600080fd5b50610531600480360360c08110156103b957600080fd5b810190808035906020019092919080359060200190929190803590602001906401000000008111156103ea57600080fd5b8201836020820111156103fc57600080fd5b8035906020019184600183028401116401000000008311171561041e57600080fd5b91908080601f016020809104026020016040519081016040528093929190818152602001838380828437600081840152601f19601f820116905080830192505050505050509192919290803573ffffffffffffffffffffffffffffffffffffffff169060200190929190803590602001906401000000008111156104a157600080fd5b8201836020820111156104b357600080fd5b803590602001918460018302840111640100000000831117156104d557600080fd5b91908080601f016020809104026020016040519081016040528093929190818152602001838380828437600081840152601f19601f82011690508083019250505050505050919291929080359060200190929190505050610c39565b005b34801561053f57600080fd5b5061056c6004803603602081101561055657600080fd5b8101908080359060200190929190505050610dd3565b604051808215151515815260200191505060405180910390f35b34801561059257600080fd5b506105c9600480360360408110156105a957600080fd5b810190808035906020019092919080359060200190929190505050610e00565b604051808060200180602001838103835285818151815260200191508051906020019080838360005b8381101561060d5780820151818401526020810190506105f2565b50505050905090810190601f16801561063a5780820380516001836020036101000a031916815260200191505b50838103825284818151815260200191508051906020019080838360005b83811015610673578082015181840152602081019050610658565b50505050905090810190601f1680156106a05780820380516001836020036101000a031916815260200191505b5094505050505060405180910390f35b3480156106bc57600080fd5b506106e9600480360360208110156106d357600080fd5b8101908080359060200190929190505050610f6a565b604051808881526020018773ffffffffffffffffffffffffffffffffffffffff1673ffffffffffffffffffffffffffffffffffffffff168152602001806020018681526020018581526020018060200180602001848103845289818151815260200191508051906020019080838360005b8381101561077557808201518184015260208101905061075a565b50505050905090810190601f1680156107a25780820380516001836020036101000a031916815260200191505b50848103835286818151815260200191508051906020019060200280838360005b838110156107de5780820151818401526020810190506107c3565b50505050905001848103825285818151815260200191508051906020019060200280838360005b83811015610820578082015181840152602081019050610805565b505050509050019a505050505050505050505060405180910390f35b6108726004803603604081101561085257600080fd5b810190808035906020019092919080359060200190929190505050611183565b005b34801561088057600080fd5b506108ad6004803603602081101561089757600080fd5b8101908080359060200190929190505050611340565b604051808215151515815260200191505060405180910390f35b6000806000838152602001908152602001600020600701600084815260200190815260200160002060009054906101000a900460ff16905092915050565b6000606060006060600060608695506000808881526020019081526020016000206002018054600181600116156101000203166002900480601f0160208091040260200160405190810160405280929190818152602001828054600181600116156101000203166002900480156109bd5780601f10610992576101008083540402835291602001916109bd565b820191906000526020600020905b8154815290600101906020018083116109a057829003601f168201915b5050505050945060008088815260200190815260200160002060030160009054906101000a900473ffffffffffffffffffffffffffffffffffffffff1693506000808881526020019081526020016000206004018054600181600116156101000203166002900480601f016020809104026020016040519081016040528092919081815260200182805460018160011615610100020316600290048015610aa55780601f10610a7a57610100808354040283529160200191610aa5565b820191906000526020600020905b815481529060010190602001808311610a8857829003601f168201915b50505050509250600080888152602001908152602001600020600501549150600080888152602001908152602001600020600601805480602002602001604051908101604052809291908181526020018280548015610b2357602002820191906000526020600020905b815481526020019060010190808311610b0f575b5050505050905091939550919395565b826001600085815260200190815260200160002060000181905550600180600085815260200190815260200160002060010160006101000a81548160ff02191690831515021790555081600160008581526020019081526020016000206002019080519060200190610ba692919061136c565b50806001600085815260200190815260200160002060030160006101000a81548173ffffffffffffffffffffffffffffffffffffffff021916908373ffffffffffffffffffffffffffffffffffffffff1602179055506000600160008581526020019081526020016000206004018190555060006001600085815260200190815260200160002060050181905550505050565b610c4285610dd3565b1515610c4d57600080fd5b8560008088815260200190815260200160002060000181905550600160008088815260200190815260200160002060010160006101000a81548160ff021916908315150217905550836000808881526020019081526020016000206002019080519060200190610cbe92919061136c565b508260008088815260200190815260200160002060030160006101000a81548173ffffffffffffffffffffffffffffffffffffffff021916908373ffffffffffffffffffffffffffffffffffffffff160217905550816000808881526020019081526020016000206004019080519060200190610d3c92919061136c565b5080600080888152602001908152602001600020600501819055506001600086815260200190815260200160002060070186908060018154018082558091505090600182039060005260206000200160009091929091909150555060016000868152602001908152602001600020600701805490506001600087815260200190815260200160002060050181905550505050505050565b60006001600083815260200190815260200160002060010160009054906101000a900460ff169050919050565b6060806000808581526020019081526020016000206002018054600181600116156101000203166002900480601f016020809104026020016040519081016040528092919081815260200182805460018160011615610100020316600290048015610eac5780601f10610e8157610100808354040283529160200191610eac565b820191906000526020600020905b815481529060010190602001808311610e8f57829003601f168201915b505050505091506000808581526020019081526020016000206004018054600181600116156101000203166002900480601f016020809104026020016040519081016040528092919081815260200182805460018160011615610100020316600290048015610f5c5780601f10610f3157610100808354040283529160200191610f5c565b820191906000526020600020905b815481529060010190602001808311610f3f57829003601f168201915b505050505090509250929050565b600080606060008060608060016000898152602001908152602001600020600001549650600160008881526020019081526020016000206002018054600181600116156101000203166002900480601f0160208091040260200160405190810160405280929190818152602001828054600181600116156101000203166002900480156110385780601f1061100d57610100808354040283529160200191611038565b820191906000526020600020905b81548152906001019060200180831161101b57829003601f168201915b505050505094506001600088815260200190815260200160002060030160009054906101000a900473ffffffffffffffffffffffffffffffffffffffff16955060016000888152602001908152602001600020600401549350600160008881526020019081526020016000206005015492506001600088815260200190815260200160002060060180548060200260200160405190810160405280929190818152602001828054801561110a57602002820191906000526020600020905b8154815260200190600101908083116110f6575b505050505091506001600088815260200190815260200160002060070180548060200260200160405190810160405280929190818152602001828054801561117157602002820191906000526020600020905b81548152602001906001019080831161115d575b50505050509050919395979092949650565b60008082815260200190815260200160002060050154341115156111a657600080fd5b6111af82610dd3565b15156111ba57600080fd5b6111c381611340565b15156111ce57600080fd5b60016000838152602001908152602001600020600601819080600181540180825580915050906001820390600052602060002001600090919290919091505550600160008381526020019081526020016000206006018054905060016000848152602001908152602001600020600401819055506000808281526020019081526020016000206006018290806001815401808255809150509060018203906000526020600020016000909192909190915055506001600080838152602001908152602001600020600701600084815260200190815260200160002060006101000a81548160ff02191690831515021790555060008082815260200190815260200160002060030160009054906101000a900473ffffffffffffffffffffffffffffffffffffffff1673ffffffffffffffffffffffffffffffffffffffff166108fc349081150290604051600060405180830381858888f1935050505015801561133b573d6000803e3d6000fd5b505050565b600080600083815260200190815260200160002060010160009054906101000a900460ff169050919050565b828054600181600116156101000203166002900490600052602060002090601f016020900481019282601f106113ad57805160ff19168380011785556113db565b828001600101855582156113db579182015b828111156113da5782518255916020019190600101906113bf565b5b5090506113e891906113ec565b5090565b61140e91905b8082111561140a5760008160009055506001016113f2565b5090565b9056fea165627a7a723058206ffdd4b5732425ef77651634065b0c39f1ef490412e13e38e9a600ed566be0cf0029",
  "source": "pragma solidity ^0.5.0;\ncontract copyright{\n    struct song{\n        uint id;\n        bool reg;\n        string name;\n        address payable owner;\n        string hash;\n        uint price;\n        uint[] licenseHoldersList;\n        mapping(uint =>bool) licenseHolders;\n    }\n    struct user{\n        uint id;\n        bool reg;\n        string name;\n        address payable addr;\n        uint purchasedCount;\n        uint publishedCount;\n        uint[] purchasedSongs;\n        uint[] publishedSongs;\n    }\n    mapping (uint =>song) songs;\n    mapping (uint => user) users;\n\n    function registerUser(uint _id,string memory _name,address payable _addr) public {\n        users[_id].id = _id;\n        users[_id].reg = true;\n        users[_id].name = _name;\n        users[_id].addr = _addr;\n         users[_id].purchasedCount = 0;\n         users[_id].publishedCount = 0;\n    }\n    function getUser(uint __id) public view returns(uint _id,address payable _addr,string memory _name,uint _purchasedCount,uint _publishedCount,uint[] memory _purchasedSongs,uint[] memory _publishedSongs){\n        _id =users[__id].id;\n        _name =users[_id].name;\n        _addr = users[_id].addr;\n        _purchasedCount = users[_id].purchasedCount;\n        _publishedCount = users[_id].publishedCount;\n        _purchasedSongs= users[_id].purchasedSongs;\n        _publishedSongs = users[_id].publishedSongs;\n    }\n    function checkUserExists(uint _uid) public view returns (bool) {\n        return users[_uid].reg;\n    }\n    function checkSongExists(uint _sid) public view returns (bool) {\n        return songs[_sid].reg;\n    }\n\n    function registerCopyright(uint _id ,uint _uid, string memory _name,address payable _owner,string memory _hash,uint _price) public {\n        require(checkUserExists(_uid));\n        songs[_id].id = _id;\n        songs[_id].reg = true;\n        songs[_id].name = _name;\n        songs[_id].owner = _owner;\n        songs[_id].hash=_hash;\n        songs[_id].price=_price;\n        users[_uid].publishedSongs.push(_id);\n        users[_uid].publishedCount=users[_uid].publishedSongs.length;\n    }\n    function buyLicence(uint buyerid,uint songid) public payable{\n        // users[buyerid].addr.send(msg.value);\n        require(msg.value>songs[songid].price);\n        require(checkUserExists(buyerid));\n        require(checkSongExists(songid));\n        users[buyerid].purchasedSongs.push(songid);\n        users[buyerid].purchasedCount=users[buyerid].purchasedSongs.length;\n        songs[songid].licenseHoldersList.push(buyerid);\n        songs[songid].licenseHolders[buyerid]=true;\n        songs[songid].owner.transfer(msg.value);\n    }\n    function checkPurchased(uint _uid, uint _sid) public view returns (bool) {\n        return songs[_sid].licenseHolders[_uid];\n    }\n\n    function songInfo(uint _sid) public view returns(uint _id,string memory _name,address payable _owner,string memory _hash,uint _price,uint[] memory _licenseHolderes){\n        // require(checkSongExists(_sid));\n        _id=_sid;\n        _name=songs[_sid].name;\n        _owner = songs[_sid].owner;\n        _hash=songs[_sid].hash;\n        _price=songs[_sid].price;\n        _licenseHolderes = songs[_sid].licenseHoldersList;\n    }\n    function getSong(uint _sid,uint _uid) public view returns(string memory _name,string memory _hash) {\n      // require(checkUserExists(_uid));\n      // require(checkSongExists(_sid));\n      // require(checkPurchased(_uid, _sid));\n      _name = songs[_sid].name;\n      _hash = songs[_sid].hash;\n    }\n}\n",
  "sourcePath": "/home/hp/dcm_dapp/contracts/copyright.sol",
  "compiler": {
    "name": "solc",
    "version": "0.5.0+commit.1d4f565a.Emscripten.clang"
  },
  "schemaVersion": "3.0.6",
  "updatedAt": "2019-05-22T09:37:51.569Z",
  "devdoc": {
    "methods": {}
  },
  "userdoc": {
    "methods": {}
  }
}