{
  "contractName": "copyright",
  "abi": [
    {
      "constant": true,
      "inputs": [],
      "name": "uCount",
      "outputs": [
        {
          "name": "",
          "type": "uint256"
        }
      ],
      "payable": false,
      "stateMutability": "view",
      "type": "function",
      "signature": "0x7bc8924b"
    },
    {
      "constant": true,
      "inputs": [
        {
          "name": "",
          "type": "uint256"
        }
      ],
      "name": "songIds",
      "outputs": [
        {
          "name": "",
          "type": "uint256"
        }
      ],
      "payable": false,
      "stateMutability": "view",
      "type": "function",
      "signature": "0x7e5b94e1"
    },
    {
      "constant": true,
      "inputs": [],
      "name": "sCount",
      "outputs": [
        {
          "name": "",
          "type": "uint256"
        }
      ],
      "payable": false,
      "stateMutability": "view",
      "type": "function",
      "signature": "0xd931bd94"
    },
    {
      "constant": false,
      "inputs": [
        {
          "name": "_id",
          "type": "uint256"
        },
        {
          "name": "_name",
          "type": "string"
        },
        {
          "name": "_addr",
          "type": "address"
        }
      ],
      "name": "registerUser",
      "outputs": [],
      "payable": false,
      "stateMutability": "nonpayable",
      "type": "function",
      "signature": "0x58129d39"
    },
    {
      "constant": true,
      "inputs": [
        {
          "name": "__id",
          "type": "uint256"
        }
      ],
      "name": "getUser",
      "outputs": [
        {
          "name": "_id",
          "type": "uint256"
        },
        {
          "name": "_addr",
          "type": "address"
        },
        {
          "name": "_name",
          "type": "string"
        },
        {
          "name": "_purchasedCount",
          "type": "uint256"
        },
        {
          "name": "_publishedCount",
          "type": "uint256"
        },
        {
          "name": "_purchasedSongs",
          "type": "uint256[]"
        },
        {
          "name": "_publishedSongs",
          "type": "uint256[]"
        }
      ],
      "payable": false,
      "stateMutability": "view",
      "type": "function",
      "signature": "0xb0467deb"
    },
    {
      "constant": true,
      "inputs": [
        {
          "name": "_uid",
          "type": "uint256"
        }
      ],
      "name": "checkUserExists",
      "outputs": [
        {
          "name": "",
          "type": "bool"
        }
      ],
      "payable": false,
      "stateMutability": "view",
      "type": "function",
      "signature": "0x6a1d1ecd"
    },
    {
      "constant": true,
      "inputs": [
        {
          "name": "_sid",
          "type": "uint256"
        }
      ],
      "name": "checkSongExists",
      "outputs": [
        {
          "name": "",
          "type": "bool"
        }
      ],
      "payable": false,
      "stateMutability": "view",
      "type": "function",
      "signature": "0xdcfefcaa"
    },
    {
      "constant": false,
      "inputs": [
        {
          "name": "_id",
          "type": "uint256"
        },
        {
          "name": "_uid",
          "type": "uint256"
        },
        {
          "name": "_name",
          "type": "string"
        },
        {
          "name": "_owner",
          "type": "address"
        },
        {
          "name": "_hash",
          "type": "string"
        },
        {
          "name": "_price",
          "type": "uint256"
        }
      ],
      "name": "registerCopyright",
      "outputs": [],
      "payable": false,
      "stateMutability": "nonpayable",
      "type": "function",
      "signature": "0x5e21a28c"
    },
    {
      "constant": false,
      "inputs": [
        {
          "name": "buyerid",
          "type": "uint256"
        },
        {
          "name": "songid",
          "type": "uint256"
        }
      ],
      "name": "buyLicense",
      "outputs": [],
      "payable": true,
      "stateMutability": "payable",
      "type": "function",
      "signature": "0x98d44535"
    },
    {
      "constant": true,
      "inputs": [
        {
          "name": "_uid",
          "type": "uint256"
        },
        {
          "name": "_sid",
          "type": "uint256"
        }
      ],
      "name": "checkPurchased",
      "outputs": [
        {
          "name": "",
          "type": "bool"
        }
      ],
      "payable": false,
      "stateMutability": "view",
      "type": "function",
      "signature": "0x34bd2a71"
    },
    {
      "constant": true,
      "inputs": [
        {
          "name": "_sid",
          "type": "uint256"
        }
      ],
      "name": "songInfo",
      "outputs": [
        {
          "name": "_id",
          "type": "uint256"
        },
        {
          "name": "_name",
          "type": "string"
        },
        {
          "name": "_owner",
          "type": "address"
        },
        {
          "name": "_oid",
          "type": "uint256"
        },
        {
          "name": "_hash",
          "type": "string"
        },
        {
          "name": "_price",
          "type": "uint256"
        },
        {
          "name": "_licenseHolderes",
          "type": "uint256[]"
        }
      ],
      "payable": false,
      "stateMutability": "view",
      "type": "function",
      "signature": "0x4e692b50"
    },
    {
      "constant": true,
      "inputs": [
        {
          "name": "_sid",
          "type": "uint256"
        },
        {
          "name": "_uid",
          "type": "uint256"
        }
      ],
      "name": "getSong",
      "outputs": [
        {
          "name": "_name",
          "type": "string"
        },
        {
          "name": "_hash",
          "type": "string"
        }
      ],
      "payable": false,
      "stateMutability": "view",
      "type": "function",
      "signature": "0xa23b9ecc"
    },
    {
      "constant": true,
      "inputs": [],
      "name": "getSongIds",
      "outputs": [
        {
          "name": "_songIds",
          "type": "uint256[]"
        }
      ],
      "payable": false,
      "stateMutability": "view",
      "type": "function",
      "signature": "0x43d7e839"
    }
  ],
  "bytecode": "0x608060405260008055600060015534801561001957600080fd5b50611d50806100296000396000f3fe6080604052600436106100c5576000357c0100000000000000000000000000000000000000000000000000000000900463ffffffff16806334bd2a71146100ca57806343d7e839146101275780634e692b501461019357806358129d39146103435780635e21a28c146104355780636a1d1ecd146105d25780637bc8924b146106255780637e5b94e11461065057806398d445351461069f578063a23b9ecc146106d7578063b0467deb14610801578063d931bd941461098d578063dcfefcaa146109b8575b600080fd5b3480156100d657600080fd5b5061010d600480360360408110156100ed57600080fd5b810190808035906020019092919080359060200190929190505050610a0b565b604051808215151515815260200191505060405180910390f35b34801561013357600080fd5b5061013c610a6a565b6040518080602001828103825283818151815260200191508051906020019060200280838360005b8381101561017f578082015181840152602081019050610164565b505050509050019250505060405180910390f35b34801561019f57600080fd5b506101cc600480360360208110156101b657600080fd5b8101908080359060200190929190505050610ac2565b60405180888152602001806020018773ffffffffffffffffffffffffffffffffffffffff1673ffffffffffffffffffffffffffffffffffffffff168152602001868152602001806020018581526020018060200184810384528a818151815260200191508051906020019080838360005b8381101561025857808201518184015260208101905061023d565b50505050905090810190601f1680156102855780820380516001836020036101000a031916815260200191505b50848103835287818151815260200191508051906020019080838360005b838110156102be5780820151818401526020810190506102a3565b50505050905090810190601f1680156102eb5780820380516001836020036101000a031916815260200191505b50848103825285818151815260200191508051906020019060200280838360005b8381101561032757808201518184015260208101905061030c565b505050509050019a505050505050505050505060405180910390f35b34801561034f57600080fd5b506104336004803603606081101561036657600080fd5b81019080803590602001909291908035906020019064010000000081111561038d57600080fd5b82018360208201111561039f57600080fd5b803590602001918460018302840111640100000000831117156103c157600080fd5b91908080601f016020809104026020016040519081016040528093929190818152602001838380828437600081840152601f19601f820116905080830192505050505050509192919290803573ffffffffffffffffffffffffffffffffffffffff169060200190929190505050610d8e565b005b34801561044157600080fd5b506105d0600480360360c081101561045857600080fd5b8101908080359060200190929190803590602001909291908035906020019064010000000081111561048957600080fd5b82018360208201111561049b57600080fd5b803590602001918460018302840111640100000000831117156104bd57600080fd5b91908080601f016020809104026020016040519081016040528093929190818152602001838380828437600081840152601f19601f820116905080830192505050505050509192919290803573ffffffffffffffffffffffffffffffffffffffff1690602001909291908035906020019064010000000081111561054057600080fd5b82018360208201111561055257600080fd5b8035906020019184600183028401116401000000008311171561057457600080fd5b91908080601f016020809104026020016040519081016040528093929190818152602001838380828437600081840152601f19601f82011690508083019250505050505050919291929080359060200190929190505050610f1e565b005b3480156105de57600080fd5b5061060b600480360360208110156105f557600080fd5b810190808035906020019092919050505061136a565b604051808215151515815260200191505060405180910390f35b34801561063157600080fd5b5061063a611397565b6040518082815260200191505060405180910390f35b34801561065c57600080fd5b506106896004803603602081101561067357600080fd5b810190808035906020019092919050505061139d565b6040518082815260200191505060405180910390f35b6106d5600480360360408110156106b557600080fd5b8101908080359060200190929190803590602001909291905050506113c0565b005b3480156106e357600080fd5b5061071a600480360360408110156106fa57600080fd5b8101908080359060200190929190803590602001909291905050506116d2565b604051808060200180602001838103835285818151815260200191508051906020019080838360005b8381101561075e578082015181840152602081019050610743565b50505050905090810190601f16801561078b5780820380516001836020036101000a031916815260200191505b50838103825284818151815260200191508051906020019080838360005b838110156107c45780820151818401526020810190506107a9565b50505050905090810190601f1680156107f15780820380516001836020036101000a031916815260200191505b5094505050505060405180910390f35b34801561080d57600080fd5b5061083a6004803603602081101561082457600080fd5b81019080803590602001909291905050506119b6565b604051808881526020018773ffffffffffffffffffffffffffffffffffffffff1673ffffffffffffffffffffffffffffffffffffffff168152602001806020018681526020018581526020018060200180602001848103845289818151815260200191508051906020019080838360005b838110156108c65780820151818401526020810190506108ab565b50505050905090810190601f1680156108f35780820380516001836020036101000a031916815260200191505b50848103835286818151815260200191508051906020019060200280838360005b8381101561092f578082015181840152602081019050610914565b50505050905001848103825285818151815260200191508051906020019060200280838360005b83811015610971578082015181840152602081019050610956565b505050509050019a505050505050505050505060405180910390f35b34801561099957600080fd5b506109a2611c4c565b6040518082815260200191505060405180910390f35b3480156109c457600080fd5b506109f1600480360360208110156109db57600080fd5b8101908080359060200190929190505050611c52565b604051808215151515815260200191505060405180910390f35b600060036000838152602001908152602001600020600801600084815260200190815260200160002060009054906101000a900460ff1680610a625750826003600084815260200190815260200160002060010154145b905092915050565b60606002805480602002602001604051908101604052809291908181526020018280548015610ab857602002820191906000526020600020905b815481526020019060010190808311610aa4575b5050505050905090565b60006060600080606060006060610ad888611c52565b1515610b4c576040517f08c379a00000000000000000000000000000000000000000000000000000000081526004018080602001828103825260128152602001807f736f6e6720646f65736e6f74206578697374000000000000000000000000000081525060200191505060405180910390fd5b879650600360008981526020019081526020016000206003018054600181600116156101000203166002900480601f016020809104026020016040519081016040528092919081815260200182805460018160011615610100020316600290048015610bf95780601f10610bce57610100808354040283529160200191610bf9565b820191906000526020600020905b815481529060010190602001808311610bdc57829003601f168201915b505050505095506003600089815260200190815260200160002060040160009054906101000a900473ffffffffffffffffffffffffffffffffffffffff169450600360008981526020019081526020016000206005018054600181600116156101000203166002900480601f016020809104026020016040519081016040528092919081815260200182805460018160011615610100020316600290048015610ce35780601f10610cb857610100808354040283529160200191610ce3565b820191906000526020600020905b815481529060010190602001808311610cc657829003601f168201915b50505050509250600360008981526020019081526020016000206001015493506003600089815260200190815260200160002060060154915060036000898152602001908152602001600020600701805480602002602001604051908101604052809291908181526020018280548015610d7c57602002820191906000526020600020905b815481526020019060010190808311610d68575b50505050509050919395979092949650565b610d978361136a565b151515610e0c576040517f08c379a000000000000000000000000000000000000000000000000000000000815260040180806020018281038252600b8152602001807f757365722065786973747300000000000000000000000000000000000000000081525060200191505060405180910390fd5b82600460008581526020019081526020016000206000018190555060016004600085815260200190815260200160002060010160006101000a81548160ff02191690831515021790555081600460008581526020019081526020016000206002019080519060200190610e80929190611c7f565b50806004600085815260200190815260200160002060030160006101000a81548173ffffffffffffffffffffffffffffffffffffffff021916908373ffffffffffffffffffffffffffffffffffffffff16021790555060006004600085815260200190815260200160002060040181905550600060046000858152602001908152602001600020600501819055506001805401600181905550505050565b610f278561136a565b1515610f9b576040517f08c379a00000000000000000000000000000000000000000000000000000000081526004018080602001828103825260138152602001807f7573657220646f6573206e6f742065786973740000000000000000000000000081525060200191505060405180910390fd5b610fa486611c52565b151515611019576040517f08c379a00000000000000000000000000000000000000000000000000000000081526004018080602001828103825260118152602001807f6475706c696361746520736f6e6720696400000000000000000000000000000081525060200191505060405180910390fd5b6005826040518082805190602001908083835b602083101515611051578051825260208201915060208101905060208303925061102c565b6001836020036101000a038019825116818451168082178552505050505050905001915050908152602001604051809103902060009054906101000a900460ff16151515611107576040517f08c379a00000000000000000000000000000000000000000000000000000000081526004018080602001828103825260128152602001807f736f6e672068617320636f70797269676874000000000000000000000000000081525060200191505060405180910390fd5b85600360008881526020019081526020016000206000018190555060016003600088815260200190815260200160002060020160006101000a81548160ff0219169083151502179055508360036000888152602001908152602001600020600301908051906020019061117b929190611c7f565b50826003600088815260200190815260200160002060040160006101000a81548173ffffffffffffffffffffffffffffffffffffffff021916908373ffffffffffffffffffffffffffffffffffffffff16021790555084600360008881526020019081526020016000206001018190555081600360008881526020019081526020016000206005019080519060200190611216929190611c7f565b5060016005836040518082805190602001908083835b602083101515611251578051825260208201915060208101905060208303925061122c565b6001836020036101000a038019825116818451168082178552505050505050905001915050908152602001604051809103902060006101000a81548160ff02191690831515021790555080600360008881526020019081526020016000206006018190555060046000868152602001908152602001600020600701869080600181540180825580915050906001820390600052602060002001600090919290919091505550600460008681526020019081526020016000206007018054905060046000878152602001908152602001600020600501819055506001600054016000819055506002869080600181540180825580915050906001820390600052602060002001600090919290919091505550505050505050565b60006004600083815260200190815260200160002060010160009054906101000a900460ff169050919050565b60015481565b6002818154811015156113ac57fe5b906000526020600020016000915090505481565b60036000828152602001908152602001600020600601543411151561144d576040517f08c379a00000000000000000000000000000000000000000000000000000000081526004018080602001828103825260158152602001807f76616c7565206c657373207468616e207072696365000000000000000000000081525060200191505060405180910390fd5b6114568261136a565b15156114ca576040517f08c379a00000000000000000000000000000000000000000000000000000000081526004018080602001828103825260148152602001807f7573657220646f65736e206e6f7420657869737400000000000000000000000081525060200191505060405180910390fd5b6114d381611c52565b1515611547576040517f08c379a00000000000000000000000000000000000000000000000000000000081526004018080602001828103825260138152602001807f736f6e6720646f6573206e6f742065786973740000000000000000000000000081525060200191505060405180910390fd5b6115518282610a0b565b15151561155d57600080fd5b600460008381526020019081526020016000206006018190806001815401808255809150509060018203906000526020600020016000909192909190915055506004600083815260200190815260200160002060060180549050600460008481526020019081526020016000206004018190555060036000828152602001908152602001600020600701829080600181540180825580915050906001820390600052602060002001600090919290919091505550600160036000838152602001908152602001600020600801600084815260200190815260200160002060006101000a81548160ff0219169083151502179055506003600082815260200190815260200160002060040160009054906101000a900473ffffffffffffffffffffffffffffffffffffffff1673ffffffffffffffffffffffffffffffffffffffff166108fc349081150290604051600060405180830381858888f193505050501580156116cd573d6000803e3d6000fd5b505050565b6060806116de8361136a565b1515611752576040517f08c379a00000000000000000000000000000000000000000000000000000000081526004018080602001828103825260128152602001807f7573657220646f65736e6f74206578697374000000000000000000000000000081525060200191505060405180910390fd5b61175b84611c52565b15156117cf576040517f08c379a00000000000000000000000000000000000000000000000000000000081526004018080602001828103825260128152602001807f736f6e6720646f65736e6f74206578697374000000000000000000000000000081525060200191505060405180910390fd5b6117d98385610a0b565b151561184d576040517f08c379a00000000000000000000000000000000000000000000000000000000081526004018080602001828103825260198152602001807f7573657220646f65736e6f742068617665206c6963656e73650000000000000081525060200191505060405180910390fd5b600360008581526020019081526020016000206003018054600181600116156101000203166002900480601f0160208091040260200160405190810160405280929190818152602001828054600181600116156101000203166002900480156118f75780601f106118cc576101008083540402835291602001916118f7565b820191906000526020600020905b8154815290600101906020018083116118da57829003601f168201915b50505050509150600360008581526020019081526020016000206005018054600181600116156101000203166002900480601f0160208091040260200160405190810160405280929190818152602001828054600181600116156101000203166002900480156119a85780601f1061197d576101008083540402835291602001916119a8565b820191906000526020600020905b81548152906001019060200180831161198b57829003601f168201915b505050505090509250929050565b60008060606000806060806119ca8861136a565b1515611a3e576040517f08c379a00000000000000000000000000000000000000000000000000000000081526004018080602001828103825260138152602001807f7573657220646f6573206e6f742065786973740000000000000000000000000081525060200191505060405180910390fd5b60046000898152602001908152602001600020600001549650600460008881526020019081526020016000206002018054600181600116156101000203166002900480601f016020809104026020016040519081016040528092919081815260200182805460018160011615610100020316600290048015611b015780601f10611ad657610100808354040283529160200191611b01565b820191906000526020600020905b815481529060010190602001808311611ae457829003601f168201915b505050505094506004600088815260200190815260200160002060030160009054906101000a900473ffffffffffffffffffffffffffffffffffffffff169550600460008881526020019081526020016000206004015493506004600088815260200190815260200160002060050154925060046000888152602001908152602001600020600601805480602002602001604051908101604052809291908181526020018280548015611bd357602002820191906000526020600020905b815481526020019060010190808311611bbf575b5050505050915060046000888152602001908152602001600020600701805480602002602001604051908101604052809291908181526020018280548015611c3a57602002820191906000526020600020905b815481526020019060010190808311611c26575b50505050509050919395979092949650565b60005481565b60006003600083815260200190815260200160002060020160009054906101000a900460ff169050919050565b828054600181600116156101000203166002900490600052602060002090601f016020900481019282601f10611cc057805160ff1916838001178555611cee565b82800160010185558215611cee579182015b82811115611ced578251825591602001919060010190611cd2565b5b509050611cfb9190611cff565b5090565b611d2191905b80821115611d1d576000816000905550600101611d05565b5090565b9056fea165627a7a723058205eca45a31494de534d2bcabf5173df15badd1333246bc31b74d47b3be34ff9010029",
  "source": "pragma solidity ^0.5.0;\ncontract copyright{\n    uint public sCount=0;\n    uint public uCount=0;\n    uint[] public songIds;\n    struct song{\n        uint id;\n        uint ownerid;\n        bool reg;\n        string name;\n        address payable owner;\n        string hash;\n        uint price;\n        uint[] licenseHoldersList;\n        mapping(uint =>bool) licenseHolders;\n    }\n    struct user{\n        uint id;\n        bool reg;\n        string name;\n        address payable addr;\n        uint purchasedCount;\n        uint publishedCount;\n        uint[] purchasedSongs;\n        uint[] publishedSongs;\n    }\n    mapping (uint =>song) songs;\n    mapping (uint => user) users;\n    mapping (string => bool) unique;\n\n    function registerUser(uint _id,string memory _name,address payable _addr) public {\n        require(!checkUserExists(_id),\"user exists\");\n        users[_id].id = _id;\n        users[_id].reg = true;\n        users[_id].name = _name;\n        users[_id].addr = _addr;\n         users[_id].purchasedCount = 0;\n         users[_id].publishedCount = 0;\n         uCount=uCount+1;\n    }\n    function getUser(uint __id) public view returns(uint _id,address payable _addr,string memory _name,uint _purchasedCount,uint _publishedCount,uint[] memory _purchasedSongs,uint[] memory _publishedSongs){\n        require(checkUserExists(__id),\"user does not exist\");\n        _id =users[__id].id;\n        _name =users[_id].name;\n        _addr = users[_id].addr;\n        _purchasedCount = users[_id].purchasedCount;\n        _publishedCount = users[_id].publishedCount;\n        _purchasedSongs= users[_id].purchasedSongs;\n        _publishedSongs = users[_id].publishedSongs;\n    }\n    function checkUserExists(uint _uid) public view returns (bool) {\n        return users[_uid].reg;\n    }\n    function checkSongExists(uint _sid) public view returns (bool) {\n        return songs[_sid].reg;\n    }\n\n    function registerCopyright(uint _id ,uint _uid, string memory _name,address payable _owner,string memory _hash,uint _price) public {\n        require(checkUserExists(_uid),\"user does not exist\");\n        require(!checkSongExists(_id),\"duplicate song id\");\n        require(!unique[_hash],\"song has copyright\");\n        songs[_id].id = _id;\n        songs[_id].reg = true;\n        songs[_id].name = _name;\n        songs[_id].owner = _owner;\n        songs[_id].ownerid = _uid;\n        songs[_id].hash=_hash;\n        unique[_hash]=true;\n        songs[_id].price=_price;\n        users[_uid].publishedSongs.push(_id);\n        users[_uid].publishedCount=users[_uid].publishedSongs.length;\n        sCount=sCount+1;\n        songIds.push(_id);\n    }\n    function buyLicense(uint buyerid,uint songid) public payable{\n        // users[buyerid].addr.send(msg.value);\n        require(msg.value>songs[songid].price,\"value less than price\");\n        require(checkUserExists(buyerid),\"user doesn not exist\");\n        require(checkSongExists(songid),\"song does not exist\");\n        require(!checkPurchased(buyerid,songid));\n        users[buyerid].purchasedSongs.push(songid);\n        users[buyerid].purchasedCount=users[buyerid].purchasedSongs.length;\n        songs[songid].licenseHoldersList.push(buyerid);\n        songs[songid].licenseHolders[buyerid]=true;\n        songs[songid].owner.transfer(msg.value);\n    }\n    function checkPurchased(uint _uid, uint _sid) public view returns (bool) {\n        return (songs[_sid].licenseHolders[_uid] ||songs[_sid].ownerid==_uid);\n    }\n\n    function songInfo(uint _sid) public view returns(uint _id,string memory _name,address payable _owner,uint _oid,string memory _hash,uint _price,uint[] memory _licenseHolderes){\n        require(checkSongExists(_sid),\"song doesnot exist\");\n        _id=_sid;\n        _name=songs[_sid].name;\n        _owner = songs[_sid].owner;\n        _hash=songs[_sid].hash;\n        _oid=songs[_sid].ownerid;\n        _price=songs[_sid].price;\n        _licenseHolderes = songs[_sid].licenseHoldersList;\n    }\n    function getSong(uint _sid,uint _uid) public view returns(string memory _name,string memory _hash) {\n      require(checkUserExists(_uid),\"user doesnot exist\");\n      require(checkSongExists(_sid),\"song doesnot exist\");\n      require(checkPurchased(_uid, _sid),\"user doesnot have license\");\n      _name = songs[_sid].name;\n      _hash = songs[_sid].hash;\n    }\n    function getSongIds() public view returns(uint[] memory _songIds){\n       return songIds;\n   }\n}\n",
  "sourcePath": "/home/hp/dcm_dapp/contracts/copyright.sol",
  "compiler": {
    "name": "solc",
    "version": "0.5.0+commit.1d4f565a.Emscripten.clang"
  },
  "schemaVersion": "3.0.6",
  "updatedAt": "2019-05-30T06:09:25.629Z",
  "devdoc": {
    "methods": {}
  },
  "userdoc": {
    "methods": {}
  }
}